:020000040800F2
:1000000040110020B52400080D2500080D2500082A
:100010000D2500080D2500080D2500080000000032
:100020000000000000000000000000000D25000896
:100030000D250008000000000D25000879210008AA
:100040000D2500080D2500080D250008DD440008D9
:100050000D2500080D2500080D2500080D250008B8
:100060000D2500080D2500080D2500080D250008A8
:100070000D2500080D2500080D2500080D25000898
:100080000D2500080D2500080D2500080D25000888
:100090000D2500080D2500080D2500080D25000878
:1000A0000D2500080D2500080D2500080D25000868
:1000B0000D2500080D2500080D2500080D25000858
:1000C0000D2500080D2500080D2500080D25000848
:1000D0000D2500080D2500080D2500080D25000838
:1000E0000D2500080D4500080D2500080D25000808
:1000F0000D2500080D2500080D2500080D25000818
:100100000D2500080D250008410900080D250008EF
:100110000D2500080D2500080D2500080D250008F7
:100120000D2500080D2500080D2500080D250008E7
:100130000D2500080D2500080D2500080D250008D7
:100140000D2500080D2500080D2500080D250008C7
:100150000D2500080D2500080D2500080D250008B7
:100160000D2500080D2500080D2500080D250008A7
:100170000D2500080D2500080D2500080D25000897
:100180000D2500080D25000880B582B000AF78600D
:100190007B683C4A934208D10121012002F036FDE0
:1001A0000021012002F032FD68E07B68364A93426C
:1001B00008D10121022002F029FD0021022002F0D5
:1001C00025FD5BE07B68314A934208D10121042080
:1001D00002F01CFD0021042002F018FD4EE07B68B7
:1001E0002B4A934208D10121082002F00FFD002183
:1001F000082002F00BFD41E07B68264A934208D1BB
:100200000121102002F002FD0021102002F0FEFC6E
:1002100034E07B68204A934208D10121202002F07B
:10022000F5FC0021202002F0F1FC27E07B681B4A4E
:10023000934208D10121402002F0E8FC0021402037
:1002400002F0E4FC1AE07B68154A934208D10121D0
:10025000802002F0DBFC0021802002F0D7FC0DE0C2
:100260007B68104A934209D101214FF4807002F05B
:10027000CDFC00214FF4807002F0C8FC00BF0837AD
:10028000BD4680BD0000024000040240000802405C
:10029000000C02400010024000140240001802400E
:1002A000001C02400020024080B487B000AF78609C
:1002B000396000237B6100233B610023FB60002346
:1002C0007B6176E001227B6902FA03F33B613B68C4
:1002D0001A683B691340FB60FA683B699A4265D132
:1002E0007B681A687B695B00032101FA03F3DB4337
:1002F0001A407B681A607B681A683B681B7919464C
:100300007B695B0001FA03F31A437B681A603B6860
:100310001B79012B03D03B681B79022B2ED17B6804
:100320009A687B695B00032101FA03F3DB431A40FF
:100330007B689A607B689A683B685B7919467B6941
:100340005B0001FA03F31A437B689A607B685A6882
:100350007B699BB2012101FA03F3DB431A407B68FE
:100360005A607B685A683B689B7919467B699BB2E7
:1003700001FA03F39BB21A437B685A607B68DA6820
:100380007B699BB25B00032101FA03F3DB431A4054
:100390007B68DA607B68DA683B68DB7919467B69E1
:1003A0005B0001FA03F31A437B68DA607B6901336F
:1003B0007B617B690F2B85D900BF1C37BD4680BC94
:1003C000704700BF80B483B000AF78607B684FF6A1
:1003D000FF721A607B6800221A717B6800225A71D2
:1003E0007B6800229A717B680022DA7100BF0C37AB
:1003F000BD4680BC704700BF80B485B000AF786058
:100400000B467B804FF48033FB607A88FB68134394
:10041000FB60FA687B68DA617A887B68DA61FA687F
:100420007B68DA617B68DB69FB607B68DB69FB60AA
:1004300000BF1437BD4680BC704700BF80B485B094
:1004400000AF78600B467B800023FB737B681A69E2
:100450007B881340002B02D00123FB7301E00023B3
:10046000FB73FB7B18461437BD4680BC704700BF4A
:1004700080B483B000AF78607B681B699BB218467C
:100480000C37BD4680BC704780B485B000AF786043
:100490000B467B800023FB737B685A697B88134083
:1004A000002B02D00123FB7301E00023FB73FB7BD5
:1004B00018461437BD4680BC704700BF80B483B077
:1004C00000AF78607B685B699BB218460C37BD460D
:1004D00080BC704780B483B000AF78600B467B80EF
:1004E0007B687A881A8300BF0C37BD4680BC704792
:1004F00080B483B000AF78600B467B807B687A88DD
:100500005A8300BF0C37BD4680BC704780B483B0AF
:1005100000AF78600B467B8013467B707B78002BA6
:1005200003D07B687A881A8302E07B687A885A83D2
:1005300000BF0C37BD4680BC704700BF80B483B09D
:1005400000AF78600B467B807A887B685A6100BF79
:100550000C37BD4680BC704780B483B000AF786074
:100560000B467B807B685A697B885A407B685A615E
:1005700000BF0C37BD4680BC704700BF80B485B05B
:1005800000AF78600B467B8013467B700023FB60D6
:100590000023BB607A787B8803F007039B0002FA94
:1005A00003F3FB607B88DB089BB218467B88DB0883
:1005B0009BB21A467B68083253F822207B8803F0EE
:1005C00007039B000F2101FA03F3DB4302EA030157
:1005D0007B6800F1080243F822107B88DB089BB29D
:1005E0001A467B68083253F82220FB681343BB602D
:1005F0007B88DB089BB21A467B680832B96843F8EF
:10060000221000BF1437BD4680BC704780B582B051
:1006100002AF0323019300230093002301224FF430
:100620007041054805F0F0FD034B4FF470425A83CA
:1006300000BFBD4680BD00BF000C024080B582B047
:1006400002AF002301930223009300230022012123
:10065000024805F0D9FD00BFBD4680BD0000024044
:1006600080B400AF0B4B1B6903F00103002B09D0D2
:10067000094B1B78DBB2002B07D1074B01221A7004
:10068000012303E0044B00221A7000231846BD46E4
:1006900080BC7047000002407C08002080B400AF9E
:1006A0000B4B1B6903F00103002B09D1094B1B788D
:1006B000DBB2002B07D0074B00221A70012303E0A6
:1006C000044B01221A7000231846BD4680BC7047B7
:1006D000000002407C08002080B500AF00F0F8F870
:1006E00000F014F900F028F800BF4FF400410F4863
:1006F000FFF7A4FE0346002BF7D100F079F802467D
:100700000B4B1A60094B4FF480721A83094B7F22FE
:100710005A60074B1B68DB09013B064A9360054B97
:1007200000221A60034800F0E7FAFEE700180240D2
:10073000800800200C09002080B584B000AF0121A2
:100740004FF0805002F026FA012002F031FC012027
:1007500001F094FF00BF612002F0AAFB0346002BCA
:10076000F9D04FF4007002F05FF9012002F08AF92D
:1007700000F070FB1D4B7F225A601C4BFF229A60D9
:100780001A4B00221A60194800F0B6FA4FF48000A4
:1007900002F012FE4FF480037B6000233B720823BB
:1007A0007B720123BB723B1D184602F01FFD032321
:1007B0003B7300237B730023BB730123FB7307F19F
:1007C0000C03184600F000F9042000F07BFF002025
:1007D00000F098FF01214FF4804001F085FB0120DB
:1007E00000F0B4FF00BF1037BD4680BD0C090020EB
:1007F00080B588B000AF012001F040FF00BF61204C
:1008000002F056FB0346002BF9D00121082002F02C
:10081000C1F940212A4805F069FB0122002128483E
:1008200003F0FCFF0C233B8200237B820123BB826D
:100830000C23FB8200233B8307F110031946204859
:1008400004F09EFE32233B7700237B770023BB77A7
:100850000123FB7707F11C03184600F0B5F80121CE
:10086000174804F0D7F8164B00221A8201221021F3
:10087000134805F09DF800BF124B1B68022BFBD1FB
:100880000F4803F067FE3B46184602F023F80E4B74
:100890009B6803F4E053002B06D1BA680B4B1B682E
:1008A000B2FBF3F3DB0006E0BB685A00074B1B68A2
:1008B000B2FBF3F3DB0018462037BD4680BD00BF16
:1008C000000C004084080020003802408808002006
:1008D00080B582B000AF0121402002F001F94FF451
:1008E000A0733B6001233B710023BB710123FB71AB
:1008F00002237B713B4619460348FFF7D5FC00BF36
:100900000837BD4680BD00BF0018024080B582B0E8
:1009100000AF0121402002F0E3F800233B710023E7
:10092000FB714FF400433B603B4619460348FFF719
:10093000BBFC00BF0837BD4680BD00BF00180240A9
:1009400098B500AF1021134805F090F80346002B2E
:100950001DD0114B1C68631C0F4A13600D4804F036
:10096000FBFE03469AB20D4B23F8142010210948D0
:1009700005F0A6F8084B1B68012B08D9074B5A88CD
:10098000064B1B88D31A9BB21A46054B1A6000BF50
:1009900098BD00BF000C0040840800208C08002097
:1009A0008808002080B483B000AF7860054A7B6877
:1009B00043F0BF6343F40033D36000BF0C37BD4640
:1009C00080BC704700ED00E080B485B000AF786077
:1009D0000023FB730023BB730F237B737B68DB78DF
:1009E000002B38D0264BDB68DB4303F4E0631B0AA3
:1009F000FB73FB7BC3F10403BB737A7BFB7B42FA83
:100A000003F37B737B685B781A46BB7B02FA03F3C4
:100A1000FB737B689A787B7B1340DAB2FB7B1343D2
:100A2000FB73FB7B1B01FB73164A7B681B7813442B
:100A3000FA7B83F80023134A7B681B785B09DBB2DF
:100A400018467B681B7803F01F03012101FA03F3AA
:100A500042F820300FE00B497B681B785B09DBB262
:100A600018467B681B7803F01F0301229A4000F1AF
:100A7000200341F8232000BF1437BD4680BC7047D7
:100A800000ED00E000E100E080B483B000AF7860EA
:100A9000396007493B6823F0604323F07F037A689D
:100AA00013438B6000BF0C37BD4680BC704700BF4E
:100AB00000ED00E080B483B000AF03460A46FB714E
:100AC0001346BB71BB79002B06D00949084B1A6944
:100AD000FB7913430B6106E00549054B1A69FB7965
:100AE000DB4313400B6100BF0C37BD4680BC704731
:100AF00000ED00E080B483B000AF78607B68042B29
:100B000006D1094A084B1B6843F00403136005E053
:100B1000054A054B1B6823F00403136000BF0C3724
:100B2000BD4680BC704700BF10E000E080B485B0D7
:100B300000AF78600A4B1B68002B02D1084B094AB2
:100B40001A60074B1B68FB60054B1A687B681344EF
:100B5000034A1360FB6818461437BD4680BC7047D3
:100B6000900800204009002080B483B000AF786076
:100B700039604FF0FF3318460C37BD4680BC7047D4
:100B800080B483B000AF78604FF0FF3318460C3765
:100B9000BD4680BC704700BF80B483B000AF7860B2
:100BA00039603B684FF400525A60002318460C37F6
:100BB000BD4680BC704700BF80B483B000AF786092
:100BC000012318460C37BD4680BC704780B485B001
:100BD00000AFF860B9607A60002318461437BD464C
:100BE00080BC704780B485B000AFF860B9607A60AF
:100BF0007B6818461437BD4680BC704780B485B00A
:100C000000AFF860B9607A607B6818461437BD465B
:100C100080BC704780B400AFFEE700BF80B584B0F1
:100C200000AF00237B600023BB600023FB73304BCD
:100C3000CA225A622E4B53225A6200F0C5F803466C
:100C4000002B02D10023FB7349E0294B00221A60DC
:100C5000274B42F201125A60254A254B9B6803F04C
:100C600007039360224BDB6803F00403BB607B68DF
:100C700001337B607B68B3F5803F02D0BB68002BFB
:100C8000F0D01B4BDB6803F00403002B02D10023E0
:100C9000FB7324E0164B9B68154B00229A60144BA3
:100CA0004FF6FF725A61124B124A1A61104B002222
:100CB0009A610F4B0022DA610D4B00221A620C4B35
:100CC0000022DA600A4B00221A6400F0C3F80346DF
:100CD000002B02D10023FB7301E00123FB73044BC3
:100CE000FF225A62FB7B18461037BD4680BD00BF0D
:100CF00000280040FF007F0080B584B000AF78601E
:100D00000023FB73194BCA225A62184B53225A62B2
:100D100000F05AF80346002B02D10023FB731CE0BD
:100D2000124A124B9B6823F0400393600F490F4B0C
:100D30009A687B681B6813438B600C4A7B689B68CE
:100D400013610A49094B1A697B685B681B041343EA
:100D50000B6100F071F80123FB73044BFF225A6210
:100D6000FB7B18461037BD4680BD00BF0028004001
:100D700080B483B000AF78607B6800221A607B6823
:100D80007F225A607B68FF229A6000BF0C37BD4605
:100D900080BC704780B483B000AF0346FB71FB7921
:100DA000002B03D0074BFF225A6205E0054BCA22F5
:100DB0005A62044B53225A6200BF0C37BD4680BCB6
:100DC000704700BF0028004080B485B000AF00230A
:100DD0007B600023FB730023BB60164BDB6803F0D2
:100DE0004003002B1ED1134B4FF0FF32DA60114B42
:100DF000DB6803F04003BB607B6801337B607B688A
:100E0000B3F5803F02D0BB68002BF0D0094BDB6804
:100E100003F04003002B02D00123FB7304E0002306
:100E2000FB7301E00123FB73FB7B18461437BD46BF
:100E300080BC70470028004080B400AF044A044BD7
:100E4000DB6823F08003D36000BFBD4680BC7047E1
:100E50000028004080B485B000AF00237B600023F1
:100E6000FB730023BB60174BCA225A62154B5322F7
:100E70005A62144A134BDB6823F0A003D360114B72
:100E8000DB6803F02003BB607B6801337B607B6819
:100E9000B3F5003F02D0BB68002BF0D0094BDB68F4
:100EA00003F02003002B02D00123FB7301E0002399
:100EB000FB73044BFF225A62FB7B18461437BD4676
:100EC00080BC70470028004080B584B000AF034666
:100ED000FB710023FB73154BCA225A62134B53223A
:100EE0005A62FFF771FF0346002B02D10023FB7308
:100EF00013E0FB79002B06D00C4A0C4B9B6843F0A7
:100F00001003936005E0094A084B9B6823F0100327
:100F10009360FFF791FF0123FB73044BFF225A629A
:100F2000FB7B18461037BD4680BD00BF002800403F
:100F300080B483B000AF0346FB710F4BCA225A62E4
:100F40000D4B53225A62FB79002B06D00A4A0A4BFA
:100F50009B6843F02003936005E0074A064B9B68BB
:100F600003F0DF039360044BFF225A6200BF0C378B
:100F7000BD4680BC704700BF0028004090B585B0DA
:100F800000AF786039600023FB600023FB727B6850
:100F9000002B09D1394B9B6803F04003002B14D17F
:100FA0003B680022DA7010E0344B9B6803F040038A
:100FB000002B07D03B681B78184601F075F80346F4
:100FC000FB6002E03B680022DA707B68002B0FD0E8
:100FD0003B681B781A043B685B781B0213433A6832
:100FE00092781A433B68DB781B041343FB601BE0D9
:100FF0003B681B78184601F03BF803461C043B682D
:101000005B78184601F034F803461B021C433B682A
:101010009B78184601F02CF8034644EA03023B682B
:10102000DB781B041343FB60144BCA225A62134B38
:1010300053225A62FFF7C8FE0346002B02D1002359
:10104000FB7212E00D4AFB6803F07F3323F0FE438E
:101050001360FFF7F1FEFFF7FDFE0346002B02D100
:101060000023FB7201E00123FB72044BFF225A6252
:10107000FB7A18461437BD4690BD00BF00280040DB
:1010800080B483B000AF78607B680022DA707B6840
:1010900000221A707B6800225A707B6800229A70C6
:1010A00000BF0C37BD4680BC704700BF80B584B020
:1010B00000AF786039600023FB60244B1B6803F0AD
:1010C0007F3323F0FE43FB60FB681B0CDBB203F0B5
:1010D0003F03DAB23B681A70FB681B0ADBB203F00D
:1010E0007F03DAB23B685A70FB68DBB203F07F0320
:1010F000DAB23B689A70FB681B0CDBB203F040036A
:10110000DAB23B68DA707B68002B1AD13B681B7837
:10111000184600F0C9FF03461A463B681A703B6840
:101120005B78184600F0C0FF03461A463B685A70C9
:101130003B689B78184600F0B7FF03461A463B68A9
:101140009A7000BF1037BD4680BD00BF0028004028
:1011500080B483B000AF00237B60054B9B6A7B604B
:10116000034B5B687B6818460C37BD4680BC7047F4
:101170000028004090B585B000AF7860396000234A
:10118000FB600023FB727B68002B0ED13B685B7811
:1011900003F01003002B08D03B685B7823F01003AA
:1011A000DBB20A33DAB23B685A707B68002B0DD091
:1011B0003B685B78184600F077FF0346FB603B68AE
:1011C0009B78184600F070FF0346FB607B68002B9D
:1011D0000FD03B68DB781A043B685B781B02134333
:1011E0003A6892781A433B681B785B031343FB60B1
:1011F0001BE03B68DB78184600F03AFF03461C040E
:101200003B685B78184600F033FF03461B021C4323
:101210003B689B78184600F02BFF034644EA030224
:101220003B681B785B031343FB60144BCA225A6272
:10123000124B53225A62FFF7C7FD0346002B02D11F
:101240000023FB7212E00D4AFB6823F07F4323F07A
:10125000C0035360FFF7F0FDFFF7FCFD0346002BD2
:1012600002D10023FB7201E00123FB72034BFF223A
:101270005A62FB7A18461437BD4690BD00280040DC
:1012800080B483B000AF78607B6801221A707B68FD
:1012900001229A707B6801225A707B680022DA7002
:1012A00000BF0C37BD4680BC704700BF80B584B01E
:1012B00000AF786039600023FB60224B5B6823F04D
:1012C0007F4323F0C003FB60FB681B0CDAB23B6872
:1012D000DA70FB681B0ADBB203F01F03DAB23B686B
:1012E0005A70FB68DBB203F03F03DAB23B689A70D6
:1012F000FB685B0BDBB203F00703DAB23B681A70E2
:101300007B68002B1AD13B68DB78184600F0CCFED6
:1013100003461A463B68DA703B685B78184600F073
:10132000C3FE03461A463B685A703B689B781846D2
:1013300000F0BAFE03461A463B689A7000BF1037A9
:10134000BD4680BD0028004090B587B000AFF86072
:10135000B9607A6000237B61FB68002B09D1474BA1
:101360009B6803F04003002B27D17B680022DA70D2
:1013700023E0424B9B6803F04003002B07D07B68BF
:101380001B78184600F090FE03467B6102E07B6804
:101390000022DA707B689B68002B07D17B681B7B7F
:1013A000184600F081FE03467B6106E07B681B7BEC
:1013B000184600F079FE03467B61FB68002B19D0CC
:1013C0007B681B781A047B685B781B0213437A687E
:1013D00092781A437B68DB781B041A437B681B7B7B
:1013E0001B061A437B689B681A437B685B68134340
:1013F0007B612BE07B681B78184600F039FE0346C2
:101400001C047B685B78184600F032FE03461B0222
:101410001C437B689B78184600F02AFE034644EA8A
:1014200003027B68DB781B0442EA03047B681B7BB6
:10143000184600F01DFE03461B0644EA03027B68C3
:101440009B681A437B685B6813437B610B4BCA2222
:101450005A620A4B53225A62BB68B3F5807F03D1AC
:10146000064A7B69D36102E0044A7B691362034B3D
:10147000FF225A6200BF1C37BD4690BD00280040C5
:1014800080B483B000AF78607B680022DA707B683C
:1014900000221A707B6800225A707B6800229A70C2
:1014A0007B6800229A607B6801221A737B680022A5
:1014B0005A6000BF0C37BD4680BC704780B586B00F
:1014C00000AFF860B9607A6000237B61BB68B3F558
:1014D000807F03D1314BDB697B6102E02F4B1B6ABC
:1014E0007B617B691B0CDBB203F03F03DAB27B68E4
:1014F0001A707B691B0ADBB203F07F03DAB27B68E8
:101500005A707B69DBB203F07F03DAB27B689A70B2
:101510007B691B0CDBB203F04003DAB27B68DA7044
:101520007B691B0EDBB203F03F03DAB27B681A73F0
:101530007B6903F080427B689A607B6903F08032AC
:101540007B685A60FB68002B23D17B681B781846A8
:1015500000F0AAFD03461A467B681A707B685B7828
:10156000184600F0A1FD03461A467B685A707B6856
:101570009B78184600F098FD03461A467B689A70DF
:101580007B681B7B184600F08FFD03461A467B687C
:101590001A7300BF1837BD4680BD00BF0028004049
:1015A00080B487B000AF78600B46FB700023FB600F
:1015B00000233B610023FB751E4BCA225A621D4B60
:1015C00053225A62FB78002B08D01A49194B9A68AB
:1015D0007B6813438B600123FB7522E01549154B93
:1015E0009A687B68DB4313408B60124BDA687B6838
:1015F0001B0A13403B61FB680133FB60FB68B3F5DA
:10160000803F02D03B69002BEFD00A4BDA687B6841
:101610001B0A1340002B02D10023FB7501E00123BC
:10162000FB75044BFF225A62FB7D18461C37BD46F2
:1016300080BC70470028004080B487B000AFF860DD
:10164000B9607A6000237B610E4BCA225A620D4B4F
:1016500053225A62BA687B6813437B61FB68B3F517
:10166000807F03D1074A7B69536402E0054A7B69A6
:101670009364044BFF225A6200BF1C37BD4680BCF6
:10168000704700BF0028004080B485B000AF78608C
:101690000023FB607B68B3F5807F05D1084B5B6C52
:1016A000C3F30E03FB6004E0054B9B6CC3F30E0316
:1016B000FB60FB6818461437BD4680BC704700BF0E
:1016C0000028004080B483B000AF78600C4BCA2281
:1016D0005A620B4B53225A62094A094B9B6823F00A
:1016E000070393600649064B9A687B6813438B6037
:1016F000034BFF225A6200BF0C37BD4680BC7047C7
:101700000028004080B483B000AF7860084BCA2244
:101710005A62074B53225A62054A7B685361044B55
:10172000FF225A6200BF0C37BD4680BC704700BF25
:101730000028004080B400AF034B5B699BB21846A1
:10174000BD4680BC704700BF0028004080B487B011
:1017500000AF0346FB710023FB6000233B610023C5
:10176000FB751D4BCA225A621B4B53225A62FB79EE
:10177000002B08D0184A184B9B6843F48063936091
:101780000123FB751FE0144A134B9B6823F480630D
:101790009360114BDB6803F004033B61FB6801338A
:1017A000FB60FB68B3F5803F02D03B69002BF0D0B3
:1017B000094BDB6803F00403002B02D10023FB7507
:1017C00001E00123FB75044BFF225A62FB7D1846A2
:1017D0001C37BD4680BC70470028004080B483B0F1
:1017E00000AF786039600E4BCA225A620C4B53220C
:1017F0005A620B4A0A4B9B6823F480239360084883
:10180000074B9A6879683B680B4313438360044B2A
:10181000FF225A6200BF0C37BD4680BC704700BF34
:101820000028004080B400AF034B9B6803F4802382
:101830001846BD4680BC70470028004080B483B085
:1018400000AF786039600E4BCA225A620C4B5322AB
:101850005A620B4A0A4B9B6823F4E00393600848E2
:10186000074B9A6879683B680B4313438360044BCA
:10187000FF225A6200BF0C37BD4680BC704700BFD4
:101880000028004080B584B000AF78603960002344
:10189000FB730F4BCA225A620D4B53225A62FFF759
:1018A00093FA0346002B02D10023FB7308E008499A
:1018B0007A683B6813438B61FFF7BEFA0123FB7321
:1018C000034BFF225A62FB7B18461037BD4680BD92
:1018D0000028004080B584B000AF0346FB710023B0
:1018E000FB73154BCA225A62134B53225A62FFF7FD
:1018F0006BFA0346002B02D10023FB7313E0FB7944
:10190000002B06D00C4A0C4B9B6843F0800393607D
:1019100005E0094A084B9B6823F080039360FFF7BA
:101920008BFA0123FB73044BFF225A62FB7B1846A0
:101930001037BD4680BD00BF0028004080B483B092
:1019400000AF0346FB710F4BCA225A620D4B532264
:101950005A62FB79002B06D00A4A0A4B9B6843F473
:101960000003936005E0074A064B9B6823F40003DD
:101970009360044BFF225A6200BF0C37BD4680BC07
:10198000704700BF0028004080B483B000AF78608B
:101990000C4BCA225A620B4B53225A62094A094B1A
:1019A0009B6823F4002393600649064B9A687B6882
:1019B00013438B60034BFF225A6200BF0C37BD46B6
:1019C00080BC70470028004080B487B000AFF8604A
:1019D000B9607A600023FB7500233B611A4BCA2271
:1019E0005A62194B53225A62174BDB6803F4803357
:1019F000002B0DD002E03B6901333B61124BDB68E9
:101A000003F48033002B03D03B69B3F5003FF2D1E0
:101A10000D4BDB6803F48033002B09D10A49FA68C7
:101A2000BB681A437B681343CB630123FB7501E05A
:101A30000023FB75044BFF225A62FB7D18461C37BE
:101A4000BD4680BC704700BF0028004080B485B010
:101A500000AF78600B46FB700023FB60124B9B6865
:101A600023F4006323F00803FB60FB78002B06D00F
:101A70007A68FB68134343F40063FB6003E0FA6891
:101A80007B681343FB60084BCA225A62064B532201
:101A90005A62054AFB689360034BFF225A6200BFFB
:101AA0001437BD4680BC70470028004080B586B022
:101AB00000AFF860B9607A6000237B6100233B616E
:101AC000414B1B6B03F07F3323F0FE437B613E4BA6
:101AD0005B6B23F07F4323F0C0033B617B691B0CEE
:101AE000DBB203F03F03DAB2BB681A707B691B0AF2
:101AF000DBB203F07F03DAB2BB685A707B69DBB2FA
:101B000003F07F03DAB2BB689A707B691B0CDBB20F
:101B100003F04003DAB2BB68DA707B680022DA7047
:101B20003B691B0ADBB203F01F03DAB27B685A7011
:101B30003B69DBB203F03F03DAB27B689A703B6922
:101B40005B0BDBB203F00703DAB27B681A70FB6849
:101B5000002B35D1BB681B78184600F0A5FA034668
:101B60001A46BB681A70BB685B78184600F09CFA8E
:101B700003461A46BB685A70BB689B78184600F04B
:101B800093FA03461A46BB689A707B685B781846DE
:101B900000F08AFA03461A467B685A707B689B7885
:101BA000184600F081FA03461A467B689A707B68F3
:101BB0001B78184600F078FA03461A467B681A70BC
:101BC00000BF1837BD4680BD0028004080B400AF7C
:101BD000024B9B6B1846BD4680BC704700280040F6
:101BE00080B483B000AF786039603B68002B08D1C7
:101BF0000A490A4B1A6C7B685B00DB4313400B6499
:101C000006E00649054B1A6C7B685B0013430B64C6
:101C100000BF0C37BD4680BC704700BF00280040A5
:101C200080B483B000AF78600B46FB70FB78002B6C
:101C300006D00949084B1A6C7B6813430B6406E015
:101C40000549054B1A6C7B68DB4313400B6400BFEE
:101C50000C37BD4680BC70470028004080B483B07C
:101C600000AF7860084A084B1B6C23F4C053136420
:101C70000549054B1A6C7B6813430B6400BF0C3796
:101C8000BD4680BC704700BF0028004080B483B0D0
:101C900000AF7860084A084B1B6C23F4E0631364C0
:101CA0000549054B1A6C7B6813430B6400BF0C3766
:101CB000BD4680BC704700BF0028004080B483B0A0
:101CC00000AF7860084A084B1B6C23F4C0431364D0
:101CD0000549054B1A6C7B6813430B6400BF0C3736
:101CE000BD4680BC704700BF0028004080B483B070
:101CF00000AF0346FB71FB79002B06D0084A084B66
:101D00001B6C43F08003136405E0054A044B1B6C15
:101D100023F08003136400BF0C37BD4680BC7047BE
:101D20000028004080B483B000AF0346FB71FB790C
:101D3000002B06D0084A084B1B6C23F400431364A5
:101D400005E0054A044B1B6C43F40043136400BFD9
:101D50000C37BD4680BC70470028004080B485B079
:101D600000AF786039600023FB60084BFB607B6844
:101D70009A00FB681344FB60FB681A463B681360DB
:101D800000BF1437BD4680BC704700BF50280040DC
:101D900080B485B000AF78600023FB60064BFB6029
:101DA0007B689A00FB681344FB60FB681B6818465D
:101DB0001437BD4680BC70475028004080B483B0C3
:101DC00000AF7860084A084B1B6C23F4803313641F
:101DD0000549054B1A6C7B6813430B6400BF0C3735
:101DE000BD4680BC704700BF0028004080B483B06F
:101DF00000AF7860084A084B1B6C23F4003313646F
:101E00000549054B1A6C7B6813430B6400BF0C3704
:101E1000BD4680BC704700BF0028004080B483B03E
:101E200000AF7860084A084B1B6C23F480231364CE
:101E30000549054B1A6C7B6813430B6400BF0C37D4
:101E4000BD4680BC704700BF0028004080B584B00C
:101E500000AF786039600023FB730023BB60214B27
:101E6000CA225A621F4B53225A621E4BDB6803F090
:101E70000803002B0DD002E0BB680133BB60194B97
:101E8000DB6803F00803002B03D0BB68B3F5805F69
:101E9000F2D1144BDB6803F00803002B18D1114B6F
:101EA0009B6803F01003002B0FD10E493A687B6842
:101EB0001343CB62FEF7CEFF0346002B02D1002373
:101EC000FB7307E00123FB7304E00023FB7301E0D5
:101ED0000023FB73034BFF225A62FB7B184610372B
:101EE000BD4680BD0028004080B483B000AF78605C
:101EF0000B46FB70194BCA225A62184B53225A6286
:101F0000FB78002B10D01549144B9A687B6823F09E
:101F1000040313438B601149104B1A6C7B6803F068
:101F2000040313430B6411E00C490C4B9A687B6863
:101F300023F00403DB4313408B600849074B1A6C02
:101F40007B6803F00403DB4313400B64034BFF2265
:101F50005A6200BF0C37BD4680BC70470028004065
:101F600080B485B000AF78600023FB730023BB60B2
:101F70000A4BDA6843F677731340BB60BA687B6834
:101F80001340002B02D00123FB7301E00023FB73FD
:101F9000FB7B18461437BD4680BC704700280040C4
:101FA00080B483B000AF786008497B689BB243F08F
:101FB0008003DA43054BDB6803F080031343CB60F7
:101FC00000BF0C37BD4680BC704700BF00280040F2
:101FD00080B487B000AF78600023FB7500233B61BD
:101FE0000023FB60134B1B6C03F004033B61114B9C
:101FF0009A687B681A407B68D90B3B690B40134396
:10200000FB600C4BDA687B681B0913403B61FB6883
:10201000002B06D03B699BB2002B02D00123FB753D
:1020200001E00023FB75FB7D18461C37BD4680BCD4
:10203000704700BF0028004080B485B000AF7860D2
:102040000023FB607B681B09FB600849FB689BB2AF
:1020500043F08003DA43054BDB6803F0800313434E
:10206000CB6000BF1437BD4680BC704700280040DD
:1020700080B485B000AF0346FB710023FB7305E01D
:10208000FB7B0133FB73FB790A3BFB71FB79092B6B
:10209000F6D8FB7B1B01DAB2FB791343DBB218469F
:1020A0001437BD4680BC704780B485B000AF03468E
:1020B000FB710023FB73FB791B09DBB21A4692000C
:1020C00013445B00FB73FB7903F00F03DAB2FB7B75
:1020D0001344DBB218461437BD4680BC704700BFBE
:1020E00080B483B000AF03463960FB7197F90730C5
:1020F000002B0BDA0D49FB7903F00F03043B3A6820
:10210000D2B21201D2B20B441A7609E0084997F90B
:1021100007303A68D2B21201D2B20B4483F80023DE
:1021200000BF0C37BD4680BC704700BF00ED00E02B
:1021300000E100E080B582B000AF78607B68B3F169
:10214000807F01D3012311E00A4A7B6823F07F439B
:10215000013B53600F214FF0FF30FFF7C1FF054BEC
:1021600000229A60034B07221A60002318460837A2
:10217000BD4680BD10E000E080B582B000AF374BB7
:102180001B680133354A1360354B1B68002B04D0A4
:10219000334B1B68013B324A1360AFF300800023CE
:1021A000FB7152E0FB792F4A9B0013445B68002BC4
:1021B00048D0FB792B4A9B0013445B681B7B002BA8
:1021C00040D0FB79274A9B0013445B689B68002B37
:1021D00038D0FB79234A9B0013445B689A68013A24
:1021E0009A60FB791F4A9B0013445B689B68002B35
:1021F00028D1FB791B4A9B0013445B681A69FB7961
:1022000018499B000B445B685B6918469047FB7953
:10221000144A9B0013445A68FB7912499B000B44F3
:102220005B681B689360FB790E4A9B0013445B68F4
:102230005B68002B06D1FB790A4A9B0013445B685C
:1022400000221A73FB790133FB71064B1B78FA7974
:102250009A42A7D300BF0837BD4680BD980800202A
:102260009C080020A408002080B500AF0D4B1B681F
:102270000D4AA2FB03239B091846FFF75BFF0346A9
:10228000002B00D0FEE7074B1B689B09074AA2FB07
:1022900003239B0A064A1360064B01221A7000BFF3
:1022A00080BD00BF10000020D34D62101791650261
:1022B00018090020A008002080B400AF074B1B784D
:1022C000002B06D0064A064B1B6843F0020313603E
:1022D00000E000BFBD4680BC704700BFA0080020E2
:1022E00010E000E080B400AF044A044B1B6823F008
:1022F0000203136000BFBD4680BC704710E000E0E1
:1023000080B586B000AFF8607B600B46FB72134669
:10231000BB72194B1B78042B01D9002328E018202D
:1023200004F056FA03467B617B69002B01D1002340
:102330001EE07B69FA681A607B691A687B699A609B
:10234000FA7A7B695A607B69BA7A1A737B697A6810
:102350001A617B693A6A5A61074B1B785A1CD1B2E1
:10236000054A1170044A9B0013447A695A607B69DC
:1023700018461837BD4680BDA408002080B586B039
:1023800000AF78600023FB750AE0FB7D244A9B00C8
:1023900013445A687B689A4208D0FB7D0133FB7571
:1023A0001F4B1B78FA7D9A42EFD300E000BF1C4B15
:1023B0001B78FA7D9A422ED0FB7D194A9B0013446C
:1023C0005B683B61EFF31083BB60BB68FB6072B678
:1023D0000DE0F97DFB7D0133114A9B0013445A68DF
:1023E0000F488B0003445A60FB7D0133FB75FA7D77
:1023F0000B4B1B78013B9A42EBDB094B1B78013BF3
:10240000DAB2074B1A70FB68002B00D162B638694C
:1024100004F0E6F900E000BF1837BD4680BD00BFFC
:10242000A408002080B483B000AF78607B680022ED
:102430001A737B6818460C37BD4680BC704700BFD6
:1024400080B483B000AF78607B6801221A737B6828
:1024500018460C37BD4680BC704700BF80B483B0BF
:1024600000AF78607B681A687B689A607B68184662
:102470000C37BD4680BC704780B483B000AF786035
:102480000B46FB70FA787B685A607B6818460C37FD
:10249000BD4680BC704700BF80B483B000AF786099
:1024A00039607B683A681A607B6818460C37BD460D
:1024B00080BC704780B582B000AF114B7B60114B80
:1024C0003B6007E03B681A1D3A607A68111D79602D
:1024D00012681A603B680C4A9342F3D30D480E49C8
:1024E0004FF000028842B8BF40F8042BFADB00F03E
:1024F00071FF04F03FF900BF0837BD4680BD00BF43
:10250000FC6F0008000000207C08002080B400AFB1
:10251000FEE700007C0800204009002080B400AFE6
:10252000104A104B1B6843F0010313600D4B00224F
:102530009A600C4A0B4B1B6823F0847323F480339E
:102540001360084B084A5A60064A064B1B6823F47E
:1025500080231360034B0022DA6000BFBD4680BCBD
:10256000704700BF003802401030002480B483B0B0
:1025700000AF0346FB71054B00221A70034AFB793A
:10258000137000BF0C37BD4680BC70470238024054
:1025900080B582B000AF00233B600023FB710023B5
:1025A000BB71312000F084FC0346BB713B680133F2
:1025B0003B603B68B3F5A06F02D0BB79002BF0D035
:1025C000312000F075FC0346002B02D00123FB7183
:1025D00001E00023FB71FB7918460837BD4680BD3A
:1025E00080B485B000AF0346FB710023FB600A4B4B
:1025F0001B68FB60FB6823F0F803FB60FB79DB00E2
:10260000FA681343FB60044AFB68136000BF143789
:10261000BD4680BC704700BF0038024080B483B024
:1026200000AF0346FB71044AFB79136000BF0C370F
:10263000BD4680BC704700BF0000474280B483B0F5
:1026400000AF0346FB710C4B00221A700A4B0022AC
:102650001A70FB79012B02D0042B04D007E0064B43
:1026600001221A7003E0044B05221A7000BF00BF5C
:102670000C37BD4680BC70477038024080B483B0D0
:1026800000AF0346FB71044AFB79136000BF0C37AF
:10269000BD4680BC704700BF800E474280B485B005
:1026A00000AFF860B9607A603B600A497B689A01C4
:1026B000BB681A433B685B08013B1B041A43FB6879
:1026C0001A43BB691B0613434B6000BF1437BD465A
:1026D00080BC70470038024080B483B000AF03462E
:1026E000FB71044AFB79136000BF0C37BD4680BC08
:1026F000704700BF6000474280B483B000AF78608D
:10270000396006497B689A013B681B071343C1F88F
:10271000843000BF0C37BD4680BC70470038024093
:1027200080B483B000AF0346FB71044AFB791360A9
:1027300000BF0C37BD4680BC704700BF68004742F1
:1027400080B483B000AF0346FB71044AFB79136089
:1027500000BF0C37BD4680BC704700BF4C004742ED
:1027600080B485B000AF786039600023FB600A4B0D
:102770009B68FB60FB6823F0EC63FB607A683B6856
:102780001343FA681343FB60034AFB68936000BF7E
:102790001437BD4680BC70470038024080B485B015
:1027A00000AF786039600023FB600A4B9B68FB60D8
:1027B000FB6823F07843FB607A683B681343FA6850
:1027C0001343FB60034AFB68936000BF1437BD46A8
:1027D00080BC70470038024080B485B000AF78609C
:1027E0000023FB60094B9B68FB60FB6823F003033D
:1027F000FB60FA687B681343FB60044AFB689360E4
:1028000000BF1437BD4680BC704700BF003802408F
:1028100080B400AF044B9B68DBB203F00C03DBB267
:102820001846BD4680BC70470038024080B485B071
:1028300000AF78600023FB60094B9B68FB60FB687E
:1028400023F0F003FB60FA687B681343FB60044AE3
:10285000FB68936000BF1437BD4680BC704700BF63
:102860000038024080B485B000AF78600023FB6080
:10287000094B9B68FB60FB6823F4E053FB60FA683C
:102880007B681343FB60044AFB68936000BF143706
:10289000BD4680BC704700BF0038024080B485B0A0
:1028A00000AF78600023FB60094B9B68FB60FB680E
:1028B00023F46043FB607B68DB00FA681343FB6032
:1028C000034AFB68936000BF1437BD4680BC704765
:1028D0000038024080B489B000AF78600023BB614B
:1028E00000237B610023FB6102233B610023FB602B
:1028F0000223BB60484B9B6803F00C03BB61BB69C0
:10290000042B07D0082B09D0002B3FD17B68434A0A
:102910001A603FE07B68424A1A603BE03E4B5B68CE
:1029200003F480039B0DFB603B4B5B6803F03F03AC
:10293000BB60FB68002B0DD0394ABB68B2FBF3F2D9
:10294000354B596847F6C0730B409B0903FB02F3F4
:10295000FB610CE0314ABB68B2FBF3F22E4B5968C5
:1029600047F6C0730B409B0903FB02F3FB612A4B44
:102970005B6803F440331B0C01335B003B61FA6975
:102980003B69B2FBF3F27B681A6003E07B68234A81
:102990001A6000BF204B9B6803F0F003BB61BB696A
:1029A0001B09BB611F4ABB6913441B78DBB27B6107
:1029B0007B681A687B69DA407B685A60164B9B68B3
:1029C00003F4E053BB61BB699B0ABB61154ABB6959
:1029D00013441B78DBB27B617B685A687B69DA4001
:1029E0007B689A600C4B9B6803F46043BB61BB69D6
:1029F0005B0BBB610B4ABB6913441B78DBB27B6189
:102A00007B685A687B69DA407B68DA6000BF2437EC
:102A1000BD4680BC704700BF003802400024F4006F
:102A200000127A000000002080B485B000AF78600A
:102A30000023FB607B6803F44073B3F5407F11D142
:102A40000F4B9B68FB60FB6823F4F813FB607B680B
:102A500023F0704323F44073FA681343FB60084A81
:102A6000FB6893600649064B1A6F7B68C3F30B0340
:102A700013430B6700BF1437BD4680BC704700BFCF
:102A80000038024080B483B000AF0346FB71044AB3
:102A9000FB79136000BF0C37BD4680BC704700BF98
:102AA0003C0E474280B483B000AF0346FB71044A3A
:102AB000FB79136000BF0C37BD4680BC704700BF78
:102AC000400E474280B483B000AF7860034A7B6811
:102AD000136000BF0C37BD4680BC70475C014742A5
:102AE00080B483B000AF78600B46FB70FB78002B9E
:102AF00006D00949084B1A6B7B6813430B6306E049
:102B00000549054B1A6B7B68DB4313400B6300BF21
:102B10000C37BD4680BC70470038024080B483B09B
:102B200000AF78600B46FB70FB78002B06D009499C
:102B3000084B5A6B7B6813434B6306E00549054B12
:102B40005A6B7B68DB4313404B6300BF0C37BD46B9
:102B500080BC70470038024080B483B000AF78601A
:102B60000B46FB70FB78002B06D00949084B9A6B8B
:102B70007B6813438B6306E00549054B9A6B7B68C2
:102B8000DB4313408B6300BF0C37BD4680BC7047EE
:102B90000038024080B483B000AF78600B46FB7011
:102BA000FB78002B06D00949084B1A6C7B6813434D
:102BB0000B6406E00549054B1A6C7B68DB43134048
:102BC0000B6400BF0C37BD4680BC70470038024024
:102BD00080B483B000AF78600B46FB70FB78002BAD
:102BE00006D00949084B5A6C7B6813434B6406E0D6
:102BF0000549054B5A6C7B68DB4313404B6400BFAF
:102C00000C37BD4680BC70470038024080B483B0AA
:102C100000AF78600B46FB70FB78002B06D00949AB
:102C2000084B1A697B6813430B6106E00549054BA5
:102C30001A697B68DB4313400B6100BF0C37BD464C
:102C400080BC70470038024080B483B000AF786029
:102C50000B46FB70FB78002B06D00949084B5A69DC
:102C60007B6813434B6106E00549054B5A697B6855
:102C7000DB4313404B6100BF0C37BD4680BC70473F
:102C80000038024080B483B000AF78600B46FB7020
:102C9000FB78002B06D00949084B9A697B681343DF
:102CA0008B6106E00549054B9A697B68DB4313405D
:102CB0008B6100BF0C37BD4680BC704700380240B6
:102CC00080B483B000AF78600B46FB70FB78002BBC
:102CD00006D00949084B1A6A7B6813430B6206E069
:102CE0000549054B1A6A7B68DB4313400B6200BF42
:102CF0000C37BD4680BC70470038024080B483B0BA
:102D000000AF78600B46FB70FB78002B06D00949BA
:102D1000084B5A6A7B6813434B6206E00549054B32
:102D20005A6A7B68DB4313404B6200BF0C37BD46D9
:102D300080BC70470038024080B483B000AF786038
:102D40000B46FB70FB78002B06D00949084B1A6D27
:102D50007B6813430B6506E00549054B1A6D7B68DC
:102D6000DB4313400B6500BF0C37BD4680BC70478A
:102D70000038024080B483B000AF78600B46FB702F
:102D8000FB78002B06D00949084B5A6D7B6813432A
:102D90004B6506E00549054B5A6D7B68DB431340E4
:102DA0004B6500BF0C37BD4680BC70470038024001
:102DB00080B483B000AF78600B46FB70FB78002BCB
:102DC00006D00949084B9A6D7B6813438B6506E072
:102DD0000549054B9A6D7B68DB4313408B6500BF4B
:102DE0000C37BD4680BC70470038024080B483B0C9
:102DF00000AF78600B46FB70FB78002B06D00949CA
:102E0000084B1A6E7B6813430B6606E00549054BB9
:102E10001A6E7B68DB4313400B6600BF0C37BD4660
:102E200080BC70470038024080B483B000AF786047
:102E30000B46FB70FB78002B06D00949084B5A6EF5
:102E40007B6813434B6606E00549054B5A6E7B6869
:102E5000DB4313404B6600BF0C37BD4680BC704758
:102E60000038024080B483B000AF03460A46FB71CD
:102E70001346BB71BB79002B08D00C490B4B1B7858
:102E8000DAB2FB791343DBB20B7009E00749074B59
:102E90001B78DAB2FB79DB43DBB21340DBB20B7099
:102EA00000BF0C37BD4680BC704700BF0D380240E4
:102EB00080B487B000AF0346FB710023FB600023A2
:102EC0007B610023FB74FB795B09DBB2FB60FB6871
:102ED000012B03D1124B1B687B6109E0FB68022BBD
:102EE00003D10F4B1B6F7B6102E00D4B5B6F7B616E
:102EF000FB7903F01F03FB607A69FB6822FA03F396
:102F000003F00103002B02D00123FB7401E0002336
:102F1000FB74FB7C18461C37BD4680BC704700BF65
:102F20000038024080B400AF044A044B5B6F43F0AA
:102F30008073536700BFBD4680BC704700380240B5
:102F400080B485B000AF0346FB710023FB73084BD0
:102F5000DA68FB791340002B02D00123FB7301E0F8
:102F60000023FB73FB7B18461437BD4680BC7047BB
:102F70000038024080B483B000AF0346FB71044ABE
:102F8000FB79137000BF0C37BD4680BC704700BF93
:102F90000E38024080B500AF01214FF08050FFF79E
:102FA0008FFE00214FF08050FFF78AFE00BF80BDEA
:102FB00080B483B000AF0346FB71044AFB79136011
:102FC00000BF0C37BD4680BC704700BF20000E42DA
:102FD00080B485B000AF78600023FB60094B1B68AC
:102FE000FB60FB6823F0E003FB60FA687B68134337
:102FF000FB60044AFB68136000BF1437BD4680BC09
:10300000704700BF0070004080B483B000AF03463B
:10301000FB71044AFB79136000BF0C37BD4680BCCE
:10302000704700BF10000E4280B483B000AF03466B
:10303000FB71044AFB79136000BF0C37BD4680BCAE
:10304000704700BFA0000E4280B483B000AF0346BB
:10305000FB71044AFB79136000BF0C37BD4680BC8E
:10306000704700BFA4000E4280B483B000AF786008
:103070007B68002B06D1094A084B1B6823F4804368
:10308000136005E0054A054B1B6843F48043136059
:1030900000BF0C37BD4680BC704700BF00700040C9
:1030A00080B483B000AF0346FB71044AFB79136020
:1030B00000BF0C37BD4680BC704700BF24000E42E5
:1030C00080B485B000AF78600B46FB700023FB60D6
:1030D000124B1B68FB60FB6823F00303FB60FA687C
:1030E0007B681343FB600D4AFB6813600C4A0C4B72
:1030F0001B6943F004031361FB78012B01D130BF3E
:1031000000E020BF064A064B1B6923F0040313614D
:1031100000BF1437BD4680BC704700BF0070004040
:1031200000ED00E080B400AF0B4A0B4B1B6843F08E
:1031300004031360084A084B1B6843F00203136042
:10314000064A064B1B6943F00403136130BF00BFFE
:10315000BD4680BC704700BF0070004000ED00E03D
:1031600080B485B000AF78600023FB73084B5A68C9
:103170007B681340002B02D00123FB7301E0002386
:10318000FB73FB7B18461437BD4680BC704700BFFD
:103190000070004080B483B000AF78600549054BF3
:1031A0001A687B689B0013430B6000BF0C37BD4659
:1031B00080BC70470070004080B400AF094B002213
:1031C0001A60084B00225A60064B00229A60054B99
:1031D0000022DA60034B044A5A6100BFBD4680BC3E
:1031E000704700BF003C0140FFFF7F0080B485B006
:1031F00000AF78600023FB60344BFB607B689B79F9
:10320000002B4FD03149314B1A687B681B68DB4378
:1032100013400B602D492D4B5A687B681B68DB43BC
:1032200013404B607B681B791A46FB681344FB60B4
:10323000FB68FA6811687A6812680A431A602349C1
:10324000224B9A687B681B68DB4313408B601F49E5
:103250001E4BDA687B681B68DB431340CB607B68DE
:103260005B79102B0ED11949184B9A687B681B6843
:1032700013438B601549154BDA687B681B68134351
:10328000CB601DE0114BFB607B685B791A46FB68E5
:103290001344FB60FB68FA6811687A6812680A4395
:1032A0001A600DE07B681B791A46FB681344FB60CB
:1032B000FB68FA6811687A681268D2430A401A609B
:1032C00000BF1437BD4680BC704700BF003C0140C2
:1032D00080B483B000AF78607B6800221A607B689E
:1032E00000221A717B680C225A717B6800229A7145
:1032F00000BF0C37BD4680BC704700BF80B483B0B0
:1033000000AF78600549054B1A697B6813430B6170
:1033100000BF0C37BD4680BC704700BF003C014079
:1033200080B485B000AF78600023FB73084B5A6906
:103330007B681340002B02D00123FB7301E00023C4
:10334000FB73FB7B18461437BD4680BC704700BF3B
:10335000003C014080B483B000AF7860034A7B68D2
:10336000536100BF0C37BD4680BC7047003C014034
:1033700080B485B000AF78600023FB730023BB608E
:103380000C4B1A687B681340BB600A4B5A697B6818
:103390001340002B05D0BB68002B02D00123FB7328
:1033A00001E00023FB73FB7B18461437BD4680BC4D
:1033B000704700BF003C014080B483B000AF78602C
:1033C000034A7B68536100BF0C37BD4680BC704721
:1033D000003C014080B500AF124A124B1B6843F01D
:1033E000010313600F4B00229A600E4A0D4B1B68BD
:1033F00023F0847323F4803313600A4B0A4A5A6023
:10340000084A084B1B6823F480231360054B0022F5
:10341000DA6000F089F8054B4FF000629A6000BF57
:1034200080BD00BF003802401030002400ED00E0F5
:1034300080B487B000AF00233B6100237B6102238F
:10344000FB600023BB6002237B60324B9B6803F070
:103450000C033B613B69042B07D0082B09D0002BE0
:103460003FD12D4B2D4A1A603FE02B4B2C4A1A605E
:103470003BE0284B5B6803F480039B0DBB60254B4E
:103480005B6803F03F037B60BB68002B0DD0244AD0
:103490007B68B2FBF3F21F4B596847F6C0730B40D1
:1034A0009B0903FB02F37B610CE01C4A7B68B2FBC7
:1034B000F3F2184B596847F6C0730B409B0903FBA6
:1034C00002F37B61134B5B6803F440331B0C013345
:1034D0005B00FB607A69FB68B2FBF3F30E4A136092
:1034E00003E00D4B0D4A1A6000BF0A4B9B6803F0C6
:1034F000F0031B090B4AD35CDBB23B61064B1A6835
:103500003B6922FA03F3044A136000BF1C37BD462F
:1035100080BC704700380240100000200024F400F6
:1035200000127A001400002080B483B000AF0023A2
:103530007B6000233B60354A344B1B6843F4803387
:103540001360324B1B6803F400333B607B6801332C
:103550007B603B68002B03D17B68B3F5A06FF0D193
:103560002A4B1B6803F40033002B02D001233B607D
:1035700001E000233B603B68012B42D1234A234BEF
:103580001B6C43F080531364214A214B1B6843F4A6
:10359000804313601D4A1D4B9B6893601B4A1B4B65
:1035A0009B6843F400439360184A184B9B6843F4AC
:1035B000A0539360154B174A5A60144A134B1B686B
:1035C00043F08073136000BF104B1B6803F000735F
:1035D000002BF9D0104B40F205621A600B4A0B4BDE
:1035E0009B6823F003039360084A084B9B6843F0F1
:1035F0000203936000BF054B9B6803F00C03082B8C
:10360000F9D100BF0C37BD4680BC7047003802407E
:103610000070004008544007003C024080B588B06C
:1036200000AF0346FB710123FB7701214FF080506F
:10363000FFF7B0FA0120FFF7BBFC1320FEF7A8FB51
:10364000B861BB6944F22132934220D1394B44F234
:1036500021321A60FB79002B02D1002000F08EFB92
:103660000020FDF797FBFDF7F5FB0120FDF792FB2E
:103670004FF48040FEF7E0FC2F4B4FF480025A617C
:1036800007F108030021184600F0A8FA46E0BB69DC
:1036900041F23422934220D1264B41F234221A6067
:1036A000FB79002B02D1002000F068FB0020FDF721
:1036B00071FBFDF7CFFB0120FDF76CFB4FF4804061
:1036C000FEF7BAFC1C4B4FF480025A6107F1080365
:1036D0000021184600F082FA20E0164B00221A6002
:1036E0000023FB77FB79184600F048FB0123FB73AE
:1036F0000123BB7301233B7400237B7400237B7382
:1037000000233B7300233B7207F108030021184696
:1037100000F014F8074B41F234221A60FB7F002BB3
:1037200001D1002301E0034B1B6818462037BD463A
:1037300080BD00BFBC080020003C014090B587B0B0
:1037400000AF78600B46FB70FB78012B77D17B686C
:10375000DB791B09DBB21A46920013445B00DAB234
:103760007B68DB7903F00F03DBB21344DBB2FB733E
:103770007B681B7A1B09DBB21A46920013445B007C
:10378000DAB27B681B7A03F00F03DBB21344DBB2BF
:103790003B747B685B7A1B09DBB21A4692001344C8
:1037A0005B00DAB27B685B7A03F00F03DBB2134491
:1037B000DBB27B747B685B791B09DBB21A46920033
:1037C00013445B00DAB27B685B7903F00F03DBB272
:1037D0001344DBB27B737B681B791B09DBB21A468F
:1037E000920013445B00DAB27B681B7903F00F038D
:1037F000DBB21344DBB23B737B681B781B09DBB283
:103800001A46920013445B00DAB27B681B7803F01F
:103810000F03DBB21344DBB23B727B689B791B095D
:10382000DBB21A46920013445B00DAB27B689B79E4
:1038300003F00F03DBB21344DBB2BB7314E07B680D
:10384000DB79FB737B681B7A3B747B685B7A7B74E8
:103850007B685B797B737B681B793B737B681B7828
:103860003B727B689B79BB737B7C632B4BD83B7C27
:10387000002B48D03B7C0C2B45D8FB7B002B42D047
:10388000F97B7B7C03F00303002B0ED17B7C03F5DB
:10389000FA62454B83FB02035811D317C31A642005
:1038A00000FB03F3D31A002B0FD17B7C03F5FA62E4
:1038B0003D4B83FB0203D811D317C31A4FF4C870D2
:1038C00000FB03F3D31A002B01D1012200E00022F8
:1038D0003B7C581E354C13465B0013449B0023442D
:1038E00003441B7899420ED87B7B172B0BD83B7B6C
:1038F0003B2B08D83B7A3B2B05D8BB7B002B02D057
:10390000BB7B072B01D901234AE07B685A79284BFE
:103910001A707B681A79264B5A707B681A78244B88
:103920009A707B68DA79234B9A707B681A7A214BFC
:103930005A707B685A7A1F4BDA707B689A791D4BF4
:103940001A701D4B00221A601B4B1F225A601A4B23
:1039500040F2FF329A601848FDF7CEF9FB78012B50
:1039600004D113490120FDF709FB03E010490020B1
:10397000FDF704FBFB78012B04D10E490120FDF774
:10398000F9FB03E00B490020FDF7F4FB0B4B1B6830
:10399000002B04D044F221311320FEF7DFF900237D
:1039A00018461C37BD4690BD1F85EB5124000020F2
:1039B0001C0900202C09002020090020BC08002040
:1039C00080B588B000AF78600023FB770023FB74DC
:1039D00011E0FB7C1A46920013445B00DAB2FB7FD5
:1039E00079680B441B781344DBB2303BDBB2FB74C9
:1039F000FB7F0133FB77FB7F7A6813441B782F2B07
:103A000005D9FB7F7A6813441B78392BE1D9FB7FFA
:103A10000133FB7700233B7511E03B7D1A46920092
:103A200013445B00DAB2FB7F79680B441B781344C4
:103A3000DBB2303BDBB23B75FB7F0133FB77FB7FB7
:103A40007A6813441B782F2B05D9FB7F7A681344BF
:103A50001B78392BE1D9FB7F0133FB7700237B7582
:103A600011E07B7D1A46920013445B00DAB2FB7FC3
:103A700079680B441B781344DBB2303BDBB27B75B7
:103A8000FB7F0133FB77FB7F7A6813441B782F2B76
:103A900005D9FB7F7A6813441B78392BE1D9FB7F6A
:103AA0000133FB770023BB7411E0BB7C1A46920004
:103AB00013445B00DAB2FB7F79680B441B78134434
:103AC000DBB2303BDBB2BB74FB7F0133FB77FB7FA8
:103AD0007A6813441B782F2B05D9FB7F7A6813442F
:103AE0001B78392BE1D9FB7F0133FB7700237B74F3
:103AF00011E07B7C1A46920013445B00DAB2FB7F34
:103B000079680B441B781344DBB2303BDBB27B7427
:103B1000FB7F0133FB77FB7F7A6813441B782F2BE5
:103B200005D9FB7F7A6813441B78392BE1D9FB7FD9
:103B30000133FB7700233B7411E03B7C1A46920073
:103B400013445B00DAB2FB7F79680B441B781344A3
:103B5000DBB2303BDBB23B74FB7F0133FB77FB7F97
:103B60007A6813441B782F2B05D9FB7F7A6813449E
:103B70001B78392BE1D9FB7F0133FB7700233B73A3
:103B800011E03B7B1A46920013445B00DAB2FB7FE4
:103B900079680B441B781344DBB2303BDBB23B73D8
:103BA000FB7F0133FB77FB7F7A6813441B782F2B55
:103BB00005D9FB7F7A6813441B78392BE1D9FB7F49
:103BC0000133FB7707F10C0300211846FFF7B6FD20
:103BD000034618462037BD4680BD00BF80B584B07F
:103BE00000AF78600B46FB70FB78002B04D12049B6
:103BF0000020FDF75BFA03E01D490120FDF756FAAE
:103C00001B4B1A787B685A71194B5A787B681A716A
:103C1000174B9A787B681A70164B9B6A9AB27B682E
:103C20005A80FB78002B04D113490020FDF73EFB9E
:103C300003E011490120FDF739FB0F4BDA787B686F
:103C40005A720D4B5A787B681A720B4B9A787B68C4
:103C5000DA71094B1A787B689A71786800F06CF910
:103C6000F8607B68FA68DA6000BF1037BD4680BD37
:103C70001C090020002800402C09002080B483B0DB
:103C800000AF03460A46FB711346BB71FB79002B5C
:103C900002D0FB790C2B01D9002330E0BB7903F073
:103CA0000303002B0ED1BB7903F5FA62164B83FB9D
:103CB00002135911D317CB1A642101FB03F3D31A52
:103CC000002B0FD1BB7903F5FA620F4B83FB021374
:103CD000D911D317CB1A4FF4C87101FB03F3D31AD0
:103CE000002B01D1012200E00022FB79591E074878
:103CF00013465B0013449B0003440B441B78184697
:103D00000C37BD4680BC70471F85EB512400002056
:103D100080B483B000AF0346FB71FB7903F003036B
:103D2000002B0ED1FB7903F5FA62134B83FB0213D0
:103D30005911D317CB1A642101FB03F3D31A002BBB
:103D40000FD1FB7903F5FA620B4B83FB0213D911F8
:103D5000D317CB1A4FF4C87101FB03F3D31A002B0E
:103D600002D14FF4B77301E040F26D1318460C37DF
:103D7000BD4680BC704700BF1F85EB5180B582B047
:103D800000AF0346FB71FB79002B0ED10120FEF73B
:103D900075FC00BF6120FFF78BF80346002BF9D0BC
:103DA0004FF40070FEF740FE10E0FB79012B0DD1BF
:103DB0000120FEF743FC00BF4120FFF779F80346DE
:103DC000002BF9D04FF48070FEF72EFE0120FEF795
:103DD00059FE0020FCF7DEFFFDF73CF80120FCF760
:103DE000D9FF41F234211320FDF7B8FF00BF083797
:103DF000BD4680BD80B584B000AF0346FB71494B22
:103E00004FF480025A610020FDF7A0FC00214FF41E
:103E10008040FEF769F8444B03221A70424B04229B
:103E20005A70414B00229A703F4B0022DA703E4894
:103E3000FCF7CAFD3D4B4FF480021A603B4B002259
:103E40001A713A4B08225A71384B00229A7137483E
:103E5000FFF7CCF9FB79002B5FD0334B0122DA70EE
:103E60003148FCF7B1FD314B01229A712F48FFF721
:103E7000BDF90020FDF76AFCFB79012B02D12C4B28
:103E8000FB603CE0FB79022B02D12A4BFB6036E061
:103E9000FB79032B03D14EF6FF73FB602FE0FB7918
:103EA000042B03D149F6FF73FB6028E0FB79052B57
:103EB00003D144F6FF73FB6021E0FB79062B03D1AD
:103EC00041F6FF73FB601AE0FB79072B03D140F644
:103ED000FF73FB6013E0FB79082B03D140F2FF7303
:103EE000FB600CE0FB79092B03D140F2FF33FB6050
:103EF00005E0FB790A2B02D140F2FF13FB600120A1
:103F0000FDF7E0FBF868FDF7FDFB01214FF4804071
:103F1000FDF7EAFF0120FDF719FC00BF1037BD4691
:103F200080BD00BF003C0140300900203409002062
:103F3000FFBF0300FFDF010080B487B000AF7860EF
:103F400000237B610023FB607B685B7A9BB203F5F7
:103F5000FA637B817B8940F2B172934201D80023DE
:103F600096E040F2B2737B8229E07B8A03F0030380
:103F70009BB2002B0BD17B8A484AA2FB0312520949
:103F8000642101FB02F29B1A9BB2002B0CD17B8AAD
:103F9000424AA2FB0312D2094FF4C87101FB02F29C
:103FA0009B1A9BB2002B02D14FF4B77301E040F291
:103FB0006D137A6913447B617B8A01337B827A8A31
:103FC0007B899A42D1D301237B8232E07B8903F043
:103FD00003039BB2002B0BD17B89304AA2FB031257
:103FE0005209642101FB02F29B1A9BB2002B0CD1F7
:103FF0007B892A4AA2FB0312D2094FF4C87101FB44
:1040000002F29B1A9BB2002B01D1012200E0002298
:104010007B8A591E224813465B0013449B000344CD
:104020000B441B781A467B6913447B617B8A0133FE
:104030007B827B681B7A9BB27A8A9A42C6D37B6862
:10404000DB791A467B691344013B7B617B69154A26
:1040500002FB03F3FB607B685B791A464FF46163F4
:1040600003FB02F31A46FB681344FB607B681B7971
:104070001A4613461B019B1A9B001A46FB68134401
:10408000FB607B681B781A46FB681344FB60FB6887
:1040900018461C37BD4680BC704700BF1F85EB51DA
:1040A000240000208051010090B484B000AF7860FB
:1040B00039607B683A68DA603968794BA3FB012381
:1040C0005A0913461B019B1A9B00CA1AD2B27B687D
:1040D0001A703B68724AA2FB03235B093B60396894
:1040E0006F4BA3FB01235A0913461B019B1A9B002C
:1040F000CA1AD2B27B681A713B68694AA2FB0323D1
:104100005B093B603968674BA3FB01231A0913461F
:104110005B001344DB00CA1AD2B27B685A713B6859
:10412000604AA2FB03231B093B603B68DA1C5E4B21
:10413000A2FB0334111B49080B1999080B46DB003D
:104140005B1AD11ACBB20133DAB27B689A7140F2B2
:10415000B273FB81FB8903F003039BB2002B0BD1ED
:10416000FB89524AA2FB03125209642101FB02F2AD
:104170009B1A9BB2002B0CD1FB894C4AA2FB031269
:10418000D2094FF4C87101FB02F29B1A9BB2002BBB
:1041900008D13B68B3F5B77F10D33B68A3F5B7737D
:1041A0003B6007E03B68B3F5B67F09D93B68A3F2F3
:1041B0006D133B60FB890133FB81CBE700BF00E05F
:1041C00000BFFB89DBB23033DAB27B685A727B689E
:1041D00000221A724BE0FB8903F003039BB2002B11
:1041E0000BD1FB89314AA2FB03125209642101FB66
:1041F00002F29B1A9BB2002B0CD1FB892B4AA2FB2B
:104200000312D2094FF4C87101FB02F29B1A9BB250
:10421000002B14D17B681B7A1A46254B13441B7B59
:104220001A463B689A4227D87B681B7A1A46204B6D
:1042300013441B7B1A463B689B1A3B6011E07B686A
:104240001B7A1A461A4B9B5C1A463B689A4215D851
:104250007B681B7A1A46164B9B5C1A463B689B1A76
:104260003B607B681B7A0133DAB27B681A727B6829
:104270001B7A0B2BAFD902E000BF00E000BF7B68C8
:104280001B7A0133DAB27B681A723B68DBB2013306
:10429000DAB27B68DA7100BF1037BD4690BC704758
:1042A00089888888ABAAAAAA254992241F85EB5140
:1042B0002400002080B586B000AF03463960FB7152
:1042C0001346BB71FB79184600F070F83B68DB7849
:1042D0003B723B689B787B723B685B78BB724FF0AC
:1042E0000043FB603B681B78002B14D14FF08043E8
:1042F0003B613B681B79002B02D101233B751DE01C
:104300003B681B79072B02D907233B7516E03B68F6
:104310001B793B7512E000233B613B681B79002B46
:1043200002D101233B7509E03B681B791F2B02D9A1
:104330001F233B7502E03B681B793B75FB79002B23
:1043400002D0012B17D02DE0BB7907F108024FF402
:1043500080711846FCF7F8FF01214FF48070FDF7DB
:104360001FF901214FF48050FDF7BEFD4FF480503E
:10437000FDF716FE16E0BB7907F108024FF4007155
:104380001846FCF7E1FF01214FF40070FDF708F932
:1043900001214FF40050FDF7A7FD4FF40050FDF749
:1043A000FFFD00BF00BF1837BD4680BD80B582B09D
:1043B00000AF0346FB71FB79002B02D0012B0FD01D
:1043C0001DE000214FF48070FDF7EAF800214FF462
:1043D0008050FDF789FD4FF48050FDF7E1FD0EE0C0
:1043E00000214FF40070FDF7DBF800214FF400507E
:1043F000FDF77AFD4FF40050FDF7D2FD00BF134BDF
:104400004FF400325A61124B4FF400321A60104BD5
:1044100000221A710E4B08225A710D4B01229A711B
:104420000B48FEF7E3FE0B4B29221A70094B0422BE
:104430005A70084B01229A70064B0122DA70054827
:10444000FCF7C2FA00BF0837BD4680BD003C014002
:10445000340900203009002080B483B000AF034647
:104460003960FB71FB79122B07D8FB791B011A46C7
:10447000044B13443A681A6000E000BF0C37BD4695
:1044800080BC70475028004080B483B000AF034622
:10449000FB71FB79122B01D9002305E0FB791B018D
:1044A0001A46044B13441B6818460C37BD4680BCA3
:1044B000704700BF5028004080B400AF00BFBD4629
:1044C00080BC704780B400AF00BFBD4680BC704761
:1044D00080B400AF00BFBD4680BC704780B500AF60
:1044E0004FF48040FDF774FD0346002B05D04FF4D8
:1044F0008040FDF7A1FDFFF7DFFF034B4FF4800283
:104500005A6100BF80BD00BF003C014080B500AFD4
:104510004FF48050FDF75CFD0346002B05D04FF4AF
:104520008050FDF789FDFFF7CDFF4FF40050FDF7F8
:104530004FFD0346002B05D04FF40050FDF77CFDE6
:10454000FFF7C6FF024B4FF400325A6100BF80BD37
:10455000003C014080B582B000AF78607B68604A63
:10456000934208D101210120FEF7C8FB0021012060
:10457000FEF7C4FBAFE07B68B3F1804F08D10121A7
:104580000120FEF79DFB00210120FEF799FBA2E030
:104590007B68544A934208D101210220FEF790FB28
:1045A00000210220FEF78CFB95E07B684E4A934287
:1045B00008D101210420FEF783FB00210420FEF72F
:1045C0007FFB88E07B68494A934208D1012108209B
:1045D000FEF776FB00210820FEF772FB7BE07B688C
:1045E000434A934208D101211020FEF769FB0021C4
:1045F0001020FEF765FB6EE07B683E4A934208D1CF
:1046000001212020FEF75CFB00212020FEF758FB53
:1046100061E07B68384A934208D101210220FEF70D
:104620006DFB00210220FEF769FB54E07B68334AF2
:1046300093420AD101214FF48030FEF75FFB002145
:104640004FF48030FEF75AFB45E07B682C4A9342DA
:104650000AD101214FF40030FEF750FB00214FF446
:104660000030FEF74BFB36E07B68264A93420AD1C6
:1046700001214FF48020FEF741FB00214FF4802000
:10468000FEF73CFB27E07B681F4A934208D10121DB
:104690004020FEF715FB00214020FEF711FB1AE039
:1046A0007B681A4A934208D101218020FEF708FB5B
:1046B00000218020FEF704FB0DE07B68144A934242
:1046C00009D101214FF48070FEF7FAFA00214FF46E
:1046D0008070FEF7F5FA00BF0837BD4680BD00BF09
:1046E000000001400004004000080040000C0040B1
:1046F0000010004000140040000401400040014050
:10470000004401400048014000180040001C0040E7
:104710000020004080B485B000AF7860396000238D
:10472000FB817B681B88FB817B68284A934213D0FE
:104730007B68274A93420FD07B68B3F1804F0BD040
:104740007B68244A934207D07B68234A934203D074
:104750007B68224A934208D1FB8923F07003FB81D6
:104760003B685A88FB891343FB817B681C4A934250
:104770000CD07B681B4A934208D0FB8923F440731A
:10478000FB813B681A89FB891343FB817B68FA89AB
:104790001A803B685A687B68DA623B681A887B68D3
:1047A0001A857B68094A934203D07B68084A934282
:1047B00004D13B689B7A9AB27B681A867B68012297
:1047C0009A8200BF1437BD4680BC7047000001408C
:1047D000000401400004004000080040000C0040BC
:1047E000001000400014004080B483B000AF786037
:1047F0007B684FF0FF325A607B6800221A807B682A
:1048000000221A817B6800225A807B6800229A72FB
:1048100000BF0C37BD4680BC704700BF80B483B07A
:1048200000AF78600B467B8013463B807B687A88BC
:104830001A857B683A889A8200BF0C37BD4680BCD7
:10484000704700BF80B485B000AF78600B467B80B6
:104850000023FB817B681B88FB81FB8923F07003AD
:10486000FB81FA897B881343FB817B68FA891A8074
:1048700000BF1437BD4680BC704700BF80B483B012
:1048800000AF786039607B683A685A6200BF0C37C5
:10489000BD4680BC704700BF80B483B000AF786075
:1048A00039607B683A68DA6200BF0C37BD4680BC6D
:1048B000704700BF80B483B000AF78607B685B6AEC
:1048C00018460C37BD4680BC704700BF80B483B02B
:1048D00000AF78607B681B8D9BB218460C37BD46D5
:1048E00080BC704780B483B000AF78600B46FB702B
:1048F000FB78002B08D07B681B889BB243F0020337
:104900009AB27B681A8007E07B681B889BB223F011
:1049100002039AB27B681A8000BF0C37BD4680BC88
:10492000704700BF80B483B000AF78600B467B80D7
:104930007B88002B08D07B681B889BB243F0040364
:104940009AB27B681A8007E07B681B889BB223F0D1
:1049500004039AB27B681A8000BF0C37BD4680BC46
:10496000704700BF80B483B000AF78600B46FB7027
:10497000FB78002B08D07B681B889BB243F0800338
:104980009AB27B681A8007E07B681B889BB223F091
:1049900080039AB27B681A8000BF0C37BD4680BC8A
:1049A000704700BF80B483B000AF78600B467B8057
:1049B0007B681B889BB223F008039AB27B681A803D
:1049C0007B681B889AB27B8813439AB27B681A80F3
:1049D00000BF0C37BD4680BC704700BF80B483B0B9
:1049E00000AF78600B467B807B681B889BB223F40A
:1049F00040739AB27B681A807B681B889AB27B8866
:104A000013439AB27B681A8000BF0C37BD4680BC46
:104A1000704700BF80B483B000AF78600B46FB7076
:104A2000FB78002B08D07B681B889BB243F0010306
:104A30009AB27B681A8007E07B681B889BB223F0E0
:104A400001039AB27B681A8000BF0C37BD4680BC58
:104A5000704700BF80B485B000AF78603960002334
:104A60007B810023FB810023BB817B681B8C9BB275
:104A700023F001039AB27B681A847B681B8CFB814C
:104A80007B689B88BB817B681B8B7B817B8923F048
:104A900070037B817B8923F003037B813B681A8849
:104AA0007B8913437B81FB8923F00203FB813B68F5
:104AB0009A89FB891343FB813B685A88FB8913431E
:104AC000FB817B681E4A934203D07B681D4A934258
:104AD00023D1FB8923F00803FB813B68DA89FB893A
:104AE0001343FB81FB8923F00403FB813B689A8815
:104AF000FB891343FB81BB8923F48073BB81BB8992
:104B000023F40073BB813B681A8ABB891343BB81C2
:104B10003B685A8ABB891343BB817B68BA899A80F8
:104B20007B687A891A833B689A687B685A637B68DA
:104B3000FA891A8400BF1437BD4680BC704700BF95
:104B4000000001400004014080B485B000AF7860EF
:104B5000396000237B810023FB810023BB817B68BC
:104B60001B8C9BB223F010039AB27B681A847B687B
:104B70001B8CFB817B689B88BB817B681B8B7B814B
:104B80007B8923F4E0437B817B8923F440737B8121
:104B90003B681B881B029AB27B8913437B81FB898C
:104BA00023F02003FB813B689B891B019AB2FB89A0
:104BB0001343FB813B685B881B019AB2FB8913435B
:104BC000FB817B68224A934203D07B68214A93424F
:104BD0002BD1FB8923F08003FB813B68DB891B0120
:104BE0009AB2FB891343FB81FB8923F04003FB81CD
:104BF0003B689B881B019AB2FB891343FB81BB89ED
:104C000023F48063BB81BB8923F40063BB813B68D1
:104C10001B8A9B009AB2BB891343BB813B685B8AAA
:104C20009B009AB2BB891343BB817B68BA899A8087
:104C30007B687A891A833B689A687B689A637B6889
:104C4000FA891A8400BF1437BD4680BC704700BF84
:104C5000000001400004014080B485B000AF7860DE
:104C6000396000237B810023FB810023BB817B68AB
:104C70001B8C9BB223F480739AB27B681A847B6886
:104C80001B8CFB817B689B88BB817B689B8B7B81BA
:104C90007B8923F070037B817B8923F003037B8175
:104CA0003B681A887B8913437B81FB8923F400735B
:104CB000FB813B689B891B029AB2FB891343FB81F2
:104CC0003B685B881B029AB2FB891343FB817B68BC
:104CD000224A934203D07B68214A93422BD1FB891D
:104CE00023F40063FB813B68DB891B029AB2FB89DA
:104CF0001343FB81FB8923F48063FB813B689B8822
:104D00001B029AB2FB891343FB81BB8923F48053B6
:104D1000BB81BB8923F40053BB813B681B8A1B0109
:104D20009AB2BB891343BB813B685B8A1B019AB271
:104D3000BB891343BB817B68BA899A807B687A8977
:104D40009A833B689A687B68DA637B68FA891A847D
:104D500000BF1437BD4680BC704700BF0000014053
:104D60000004014080B485B000AF78603960002352
:104D7000BB8100237B810023FB817B681B8C9BB262
:104D800023F480539AB27B681A847B681B8C7B81E6
:104D90007B689B88FB817B689B8BBB81BB8923F4F1
:104DA000E043BB81BB8923F44073BB813B681B8814
:104DB0001B029AB2BB891343BB817B8923F4005346
:104DC0007B813B689B891B039AB27B8913437B8160
:104DD0003B685B881B039AB27B8913437B817B68AA
:104DE000114A934203D07B68104A93420AD1FB894F
:104DF00023F48043FB813B681B8A9B019AB2FB89A9
:104E00001343FB817B68FA899A807B68BA899A830D
:104E10003B689A687B681A647B687A891A8400BF49
:104E20001437BD4680BC70470000014000040140BB
:104E300080B483B000AF78607B6800221A807B6802
:104E400000225A807B6800229A807B6800229A6048
:104E50007B6800229A817B680022DA817B680022CD
:104E60001A827B6800225A8200BF0C37BD4680BC84
:104E7000704700BF80B485B000AF78600B467B8080
:104E800013463B800023FB6000237B817B68FB6033
:104E9000FB681833FB607B88012202FA03F37B81F5
:104EA0007B681B8C9AB27B89DB439BB213409AB21E
:104EB0007B681A847B88002B02D07B88082B14D156
:104EC0007B885B089BB21A46FB681344FB60FA6858
:104ED000FB6819684FF68F730B401360FB68FA6824
:104EE00011683A880A431A6017E07B88043B9BB23A
:104EF0005B089BB21A46FB681344FB60FA68FB68C8
:104F0000196848F6FF730B401360FB68FA68126873
:104F10003988090289B20A431A6000BF1437BD46B6
:104F200080BC704780B483B000AF786039607B6824
:104F30003A685A6300BF0C37BD4680BC704700BF5B
:104F400080B483B000AF786039607B683A689A6358
:104F500000BF0C37BD4680BC704700BF80B483B033
:104F600000AF786039607B683A68DA6300BF0C375D
:104F7000BD4680BC704700BF80B483B000AF78608E
:104F800039607B683A681A6400BF0C37BD4680BC44
:104F9000704700BF80B485B000AF78600B467B805F
:104FA0000023FB817B681B8BFB81FB8923F0700353
:104FB000FB81FA897B881343FB817B68FA891A831A
:104FC00000BF1437BD4680BC704700BF80B485B0B9
:104FD00000AF78600B467B800023FB817B681B8BD6
:104FE000FB81FB8923F4E043FB817B881B029AB29F
:104FF000FB891343FB817B68FA891A8300BF14374E
:10500000BD4680BC704700BF80B485B000AF7860FB
:105010000B467B800023FB817B689B8BFB81FB899C
:1050200023F07003FB81FA897B881343FB817B6843
:10503000FA899A8300BF1437BD4680BC704700BF11
:1050400080B485B000AF78600B467B800023FB8185
:105050007B689B8BFB81FB8923F4E043FB817B888E
:105060001B029AB2FB891343FB817B68FA899A83FE
:1050700000BF1437BD4680BC704700BF80B485B008
:1050800000AF78600B467B800023FB817B681B8B25
:10509000FB81FB8923F00803FB81FA897B8813439A
:1050A000FB817B68FA891A8300BF1437BD4680BC38
:1050B000704700BF80B485B000AF78600B467B803E
:1050C0000023FB817B681B8BFB81FB8923F400633E
:1050D000FB817B881B029AB2FB891343FB817B68AF
:1050E000FA891A8300BF1437BD4680BC704700BFE1
:1050F00080B485B000AF78600B467B800023FB81D5
:105100007B689B8BFB81FB8923F00803FB81FA8979
:105110007B881343FB817B68FA899A8300BF14372D
:10512000BD4680BC704700BF80B485B000AF7860DA
:105130000B467B800023FB817B689B8BFB81FB897B
:1051400023F40063FB817B881B029AB2FB89134323
:10515000FB817B68FA899A8300BF1437BD4680BC07
:10516000704700BF80B485B000AF78600B467B808D
:105170000023FB817B681B8BFB81FB8923F00403ED
:10518000FB81FA897B881343FB817B68FA891A8348
:1051900000BF1437BD4680BC704700BF80B485B0E7
:1051A00000AF78600B467B800023FB817B681B8B04
:1051B000FB81FB8923F48063FB817B881B029AB20D
:1051C000FB891343FB817B68FA891A8300BF14377C
:1051D000BD4680BC704700BF80B485B000AF78602A
:1051E0000B467B800023FB817B689B8BFB81FB89CB
:1051F00023F00403FB81FA897B881343FB817B68DE
:10520000FA899A8300BF1437BD4680BC704700BF3F
:1052100080B485B000AF78600B467B800023FB81B3
:105220007B689B8BFB81FB8923F48063FB817B88FC
:105230001B029AB2FB891343FB817B68FA899A832C
:1052400000BF1437BD4680BC704700BF80B485B036
:1052500000AF78600B467B800023FB817B681B8B53
:10526000FB81FB8923F08003FB81FA897B88134350
:10527000FB817B68FA891A8300BF1437BD4680BC66
:10528000704700BF80B485B000AF78600B467B806C
:105290000023FB817B681B8BFB81FB89C3F30E031F
:1052A000FB817B881B029AB2FB891343FB817B68DD
:1052B000FA891A8300BF1437BD4680BC704700BF0F
:1052C00080B485B000AF78600B467B800023FB8103
:1052D0007B689B8BFB81FB8923F08003FB81FA8930
:1052E0007B881343FB817B68FA899A8300BF14375C
:1052F000BD4680BC704700BF80B485B000AF786009
:105300000B467B800023FB817B689B8BFB81FB89A9
:10531000C3F30E03FB817B881B029AB2FB89134304
:10532000FB817B68FA899A8300BF1437BD4680BC35
:10533000704700BF80B485B000AF78600B467B80BB
:105340000023FB817B681B8CFB81FB8923F002031C
:10535000FB81FA897B881343FB817B68FA891A8475
:1053600000BF1437BD4680BC704700BF80B485B015
:1053700000AF78600B467B800023FB817B681B8C31
:10538000FB81FB8923F00803FB81FA897B881343A7
:10539000FB817B68FA891A8400BF1437BD4680BC44
:1053A000704700BF80B485B000AF78600B467B804B
:1053B0000023FB817B681B8CFB81FB8923F020038E
:1053C000FB817B881B019AB2FB891343FB817B68BD
:1053D000FA891A8400BF1437BD4680BC704700BFED
:1053E00080B485B000AF78600B467B800023FB81E2
:1053F0007B681B8CFB81FB8923F08003FB817B880E
:105400001B019AB2FB891343FB817B68FA891A84DA
:1054100000BF1437BD4680BC704700BF80B485B064
:1054200000AF78600B467B800023FB817B681B8C80
:10543000FB81FB8923F40073FB817B881B029AB2FA
:10544000FB891343FB817B68FA891A8400BF1437F8
:10545000BD4680BC704700BF80B485B000AF7860A7
:105460000B467B800023FB817B681B8CFB81FB89C7
:1054700023F40063FB817B881B029AB2FB891343F0
:10548000FB817B68FA891A8400BF1437BD4680BC53
:10549000704700BF80B485B000AF78600B467B805A
:1054A0000023FB817B681B8CFB81FB8923F4005369
:1054B000FB817B881B039AB2FB891343FB817B68CA
:1054C000FA891A8400BF1437BD4680BC704700BFFC
:1054D00080B485B000AF78600B467B8013463B807C
:1054E0000023FB817B88012202FA03F3FB817B68A6
:1054F0001B8C9AB2FB89DB439BB213409AB27B6848
:105500001A847B681B8C9BB21AB239887B8801FA9B
:1055100003F31BB213431BB29AB27B681A8400BF19
:105520001437BD4680BC704780B485B000AF78604A
:105530000B467B8013463B800023FB817B88042243
:1055400002FA03F3FB817B681B8C9AB2FB89DB4375
:105550009BB213409AB27B681A847B681B8C9BB207
:105560001AB239887B8801FA03F31BB213431BB2CA
:105570009AB27B681A8400BF1437BD4680BC70475E
:1055800080B582B000AF786039603B681B88002B23
:105590000FD13B6859883B689A883B681B897868BB
:1055A00000F0B4FC3B68DB881946786800F0E0F84E
:1055B00036E03B681B88042B0FD13B6859883B6859
:1055C0009A883B681B89786800F0E2FC3B68DB88BE
:1055D0001946786800F0E8F822E03B681B88082B41
:1055E0000FD13B6859883B689A883B681B8978686B
:1055F00000F01AFD3B68DB881946786800F0F2F885
:105600000EE03B6859883B689A883B681B8978683C
:1056100000F052FD3B68DB881946786800F0FEF820
:1056200000BF0837BD4680BD80B483B000AF78604E
:105630007B6800221A807B6800225A807B680122E6
:105640009A807B680022DA807B6800221A8100BF82
:105650000C37BD4680BC704780B584B000AF786021
:1056600039600023FB810123BB813B685B88002BF1
:1056700002D10223FB8101E00023FB813B689B8870
:10568000012B02D10223BB8101E00123BB813B68D6
:105690001B88002B1CD13B6859883B689A883B6863
:1056A0001B89786800F032FC3B68DB881946786813
:1056B00000F05EF83B681B89BA89F989786800F0C8
:1056C00067FC3B68DB881946786800F06DF81BE0E2
:1056D0003B6859883B689A883B681B89786800F06A
:1056E00057FC3B68DB881946786800F05DF83B683A
:1056F0001B89BA89F989786800F008FC3B68DB8867
:105700001946786800F034F800BF1037BD4680BDF8
:1057100080B483B000AF78607B685B6B18460C3751
:10572000BD4680BC704700BF80B483B000AF7860D6
:105730007B689B6B18460C37BD4680BC704700BF2A
:1057400080B483B000AF78607B68DB6B18460C37A1
:10575000BD4680BC704700BF80B483B000AF7860A6
:105760007B681B6C18460C37BD4680BC704700BF79
:1057700080B483B000AF78600B467B807B681B8B66
:105780009BB223F00C039AB27B681A837B681B8B55
:105790009AB27B8813439AB27B681A8300BF0C3796
:1057A000BD4680BC704700BF80B483B000AF786056
:1057B0000B467B807B681B8B9BB223F440639AB2C1
:1057C0007B681A837B681B8B9AB27B881B029BB217
:1057D00013439AB27B681A8300BF0C37BD4680BC66
:1057E000704700BF80B483B000AF78600B467B8009
:1057F0007B689B8B9BB223F00C039AB27B689A83E5
:105800007B689B8B9AB27B8813439AB27B689A839E
:1058100000BF0C37BD4680BC704700BF80B483B06A
:1058200000AF78600B467B807B689B8B9BB223F438
:1058300040639AB27B689A837B689B8B9AB27B8821
:105840001B029BB213439AB27B689A8300BF0C374A
:10585000BD4680BC704700BF80B483B000AF7860A5
:1058600039603B681A883B685B8813439AB23B688F
:105870009B8813439AB23B68DB8813439AB23B6818
:105880001B8913439AB23B685B8913439AB23B6806
:105890009B8913439AB27B68A3F8442000BF0C375E
:1058A000BD4680BC704700BF80B483B000AF786055
:1058B0007B6800221A807B6800225A807B68002265
:1058C0009A807B680022DA807B6800221A817B68DC
:1058D00000225A817B6800229A8100BF0C37BD46A6
:1058E00080BC704780B483B000AF78600B46FB701B
:1058F000FB78002B0CD07B68B3F844309BB26FEA86
:1059000043436FEA53439AB27B68A3F8442009E00B
:105910007B68B3F844309BB2C3F30E039AB27B6842
:10592000A3F8442000BF0C37BD4680BC704700BFC1
:1059300080B483B000AF78600B46FB70FB78002B1F
:1059400008D07B689B889BB243F004039AB27B68C3
:105950009A8007E07B689B889BB223F004039AB28D
:105960007B689A8000BF0C37BD4680BC704700BF83
:1059700080B483B000AF78600B46FB70FB78002BDF
:1059800008D07B689B889BB243F001039AB27B6886
:105990009A8007E07B689B889BB223F001039AB250
:1059A0007B689A8000BF0C37BD4680BC704700BF43
:1059B00080B483B000AF78600B467B8013467B7069
:1059C0007B78002B08D07B689B899AB27B88134335
:1059D0009AB27B689A8109E07B689B899AB27B883E
:1059E000DB439BB213409AB27B689A8100BF0C37AD
:1059F000BD4680BC704700BF80B483B000AF786004
:105A00000B467B807B687A889A8200BF0C37BD4644
:105A100080BC704780B485B000AF78600B467B8057
:105A20000023FB737B681B8A9AB27B8813409BB26E
:105A3000002B02D00123FB7301E00023FB73FB7BEF
:105A400018461437BD4680BC704700BF80B483B091
:105A500000AF78600B467B807B88DB439AB27B6823
:105A60001A8200BF0C37BD4680BC704780B485B039
:105A700000AF78600B467B800023FB730023BB8163
:105A800000237B817B681B8A9AB27B881340BB8191
:105A90007B689B899AB27B8813407B81BB89002BF2
:105AA00005D07B89002B02D00123FB7301E000238A
:105AB000FB73FB7B18461437BD4680BC704700BFA4
:105AC00080B483B000AF78600B467B807B88DB437B
:105AD0009AB27B681A8200BF0C37BD4680BC704703
